:020000041000EA
:1000000000B50C4B00219960022159610A49196021
:100010000A490B480160002159600121996001BC27
:10002000002800D0004707480749086003C880F34C
:10003000088808470000001800031F00180200038A
:10004000F40000180001001008ED00E000000000BE
:1000500000000000000000000000000000000000A0
:100060000000000000000000000000000000000090
:100070000000000000000000000000000000000080
:100080000000000000000000000000000000000070
:100090000000000000000000000000000000000060
:1000A0000000000000000000000000000000000050
:1000B0000000000000000000000000000000000040
:1000C0000000000000000000000000000000000030
:1000D0000000000000000000000000000000000020
:1000E0000000000000000000000000000000000010
:1000F000000000000000000000000000EA224C5D4B
:1001000000200420F7010010C3010010C5010010F9
:10011000C1010010C1010010C1010010C101001097
:10012000C1010010C1010010C1010010C701001081
:10013000C1010010C1010010C9010010CB01001065
:10014000CD010010CD010010CD010010CD01001037
:10015000CD010010CD010010CD010010CD01001027
:10016000CD010010CD010010CD010010CD01001017
:10017000CD010010CD010010CD010010CD01001007
:10018000CD010010CD010010CD010010CD010010F7
:10019000CD010010CD010010CD010010CD010010E7
:1001A000CD010010CD010010CD010010CD010010D7
:1001B000CD010010CD010010CD010010CD010010C7
:1001C00000BE00BE00BE00BE00BE00BE00F04BF888
:1001D000103800BEF2EB887178370010A03700109D
:1001E0003402001090A31AE700202149086006C8D5
:1001F00081F3088810471F48006800282FD10DA4FC
:100200000ECC002902D000F012F8F9E71A491B4A77
:10021000002000E001C19142FCD1194988471949E9
:1002200088471949884700BEFDE701C901C29A42C3
:10023000FBD37047A0370010C0000020A40A0020A4
:1002400084410010000004200000042084410010BC
:1002500000100420001004200000000070470B482C
:1002600002F04AF80047EFF30580C0B27047000083
:1002700008ED00E0000000D0A80A0020B40E002025
:10028000A11A00105D030010C11B0010575600009A
:1002900006005250ABB36053DC36001006005250DB
:1002A000861C0302EC360010060052505422A29D18
:1002B000F836001005005250DE65F46884410010E5
:1002C000F8B5C0460448054B10B5834203D0044B33
:1002D000002B00D0984710BDA40A0020A40A0020DB
:1002E0000000000006480749091A8B10C90FC918F9
:1002F00010B5491003D0044B002B00D0984710BD17
:10030000A40A0020A40A00200000000010B5074C39
:100310002378002B09D1FFF7D5FF054B002B02D026
:10032000044800E000BF0123237010BDA80B00208B
:100330000000000028360010054B10B5002B03D03C
:100340000449054800E000BFFFF7CCFF10BDC046E0
:1003500000000000AC0B002028360010F0B5DE468F
:10036000454657464E46E0B5ADB002F067FC9C4BA3
:1003700001259846186800F0B9FC42462B00126827
:10038000D024934024066362A3612B00954F3A6802
:1003900093406362A361944B9946186800F0A6FCF1
:1003A0004B461B6808229D400023A5620393383307
:1003B000029303330193313B042100931EA88B4B1E
:1003C00000F084FB10A800F00DFCE121884C4902EC
:1003D000200000F0FBFC0221002000F06FFC022155
:1003E000012000F06BFCC022236B12021340814AF3
:1003F00013606022E36A5A406E2313407E4A136002
:100400001023E16A0B40136001F050F8002900D17D
:1004100054E3FA220023920002F00EF80790774B83
:1004200000269A46764B01259B4601F03FF80029AD
:100430007BD0FA220023920001F0FEFF079BC01A36
:10044000FA239B0098427AD2D0244B4624061A689D
:100450006368D3401D4200D183E0002E00D159E2F1
:10046000D021534609061A684B68D3401D4200D07C
:1004700080E04B6859460968CB401D427AD101267D
:10048000D02109064B68D3401D4200D1A1E05A4655
:100490004B681268D3401D4200D19AE02B003A68A5
:1004A00093408B6152488369DB06BED40100102261
:1004B00014008B691C401A42FAD10368433BDBB23B
:1004C000102BB2D84F4A9B00D3589F461021484A60
:1004D00011A893691942FCD113680AAC0370A446B1
:1004E0002223013063449842F3D1FA22D200237FC1
:1004F000617F94462000A27F222400190078013CED
:1005000003900AA800190078013C02900AA800197B
:100510000078634401900AA8C07F00901EA800F0F4
:1005200019FB00F0C3FF002983D1FA21890001F0F3
:100530003DFF079BC01AFA239B00984284D3FA22FE
:1005400092009446079BD02463441EA8079300F0B2
:10055000CBFA4B4624061A686368D3401D4200D08C
:100560007BE753461A686368D3401D4200D1C9E156
:10057000012E85D1D021584609064B6800684C6889
:10058000D340C44042462C402B409B00E400E4187A
:100590002B00126816A893408B611EA900F0E8FAA0
:1005A0006B46023415951D9418AA51CA51C351CAFD
:1005B00051C32900169A179B10A800F017FBD021F1
:1005C000534609061A684B680026D3401D4200D0E6
:1005D0005DE72A003B689A40D0231B065A6161E719
:1005E000880100208401002080010020E507000030
:1005F00000400340305003402C5003408C01002049
:10060000900100202836001010A915A800F03EFB2C
:10061000159B9C46002B00DC07E7169B18980B9354
:10062000179B0993199B08931A9B0E931B9B0C9382
:100630001C9B0D931D9B0A93CE4B00241C5FAA2C80
:1006400000D133E22021CC4A93691942FCD1AA237C
:100650001360624655331A409446A24200D11DE20F
:100660002021C54A93691942FCD16346FA211360DF
:10067000C90001F06FFEFF231940A14200D105E23D
:100680002020BD4A93691842FCD1FF200B9B1160CA
:100690001840A04200D1F1E12021B74A93691942E4
:1006A000FCD11060FF20099B1840A04200D1DDE181
:1006B0002021B14A93691942FCD11060FF20089BA8
:1006C0001840A04200D1C9E12021AB4A93691942E8
:1006D000FCD11060FF200E9B1840A04200D1B5E174
:1006E0002021A54A93691942FCD11060FF200C9B80
:1006F0001840844200D1A1E120219F4A9369194208
:10070000FCD11060FF200D9B1840A04200D185E174
:100710002021994A93691942FCD11060FF200A9B5D
:100720001840A04200D171E12021934A93691942F7
:10073000FCD11060BB2C00D178E120218E4A936956
:100740001942FCD1BB2313606FE6002E00D06CE68B
:1007500043462A001B6816A89A40D0231B065A61FC
:100760001EA900F005FA6B4615951D9518AA51CAE9
:1007700051C351CA51C32900169A179B10A800F003
:1007800035FA012651E6012E00D04EE643463200EE
:100790001B6816A89A40D0231B069A611EA900F078
:1007A000E7F902231D936B46159618AA310051CA2A
:1007B00051C351CA51C310A8169A179B00F016FADC
:1007C000002632E616A81EA900F0D2F9169B18984A
:1007D0000A93179B0B93199B0C931A9B0D931B9BCE
:1007E0000E931C9B0F9300230993002E02D00A2422
:1007F0000A3309935F4B00229B5E0893CC2B00D1F8
:10080000DCE020215C4A93691942FCD1CC231360BF
:10081000089B012B00D1C9E02021574A9369194256
:10082000FCD1FA211560C90001F094FDFF231940A5
:10083000089B994200D1E1E020204F4A9369184279
:10084000FCD1FF200A9B11601840089B834200D115
:10085000CCE02021484A93691942FCD11060FF2066
:100860000B9B1840089B984200D1B7E02021424AD8
:1008700093691942FCD11060FF200C9B1840089B23
:10088000834200D1A2E020213B4A93691942FCD166
:100890001060FF200D9B1840089B834276D02021DA
:1008A000354A93691942FCD11060FF200E9B184015
:1008B000089B984262D020212F4A93691942FCD1AB
:1008C0001060FF200F9B1840089B98424AD02021BF
:1008D000294A93691942FCD11060089B099A9342F6
:1008E00038D02021244A93691942FCD1089B146016
:1008F000DD2B53D02021204A93691942FCD1DD23FE
:10090000136092E5594663680968CB401D4200D0E8
:100910002EE6B5E521004B68D3401D42FBD1962061
:1009200000F00CFD42462B00126816A893401EA949
:10093000636100F01DF96B4615951D9518AA51CA03
:1009400051C351CA51C32900169A179B10A800F031
:100950004DF985E52021084A93691942FCD10D2300
:100960001360BEE72021044A93691942FCD10D238C
:100970001360ACE7A80C0020004003402021524A3D
:1009800093691942FCD10D23136094E720214E4A4C
:1009900093691942FCD10D23136080E720214A4A54
:1009A00093691942FCD10D231360A3E72021464A25
:1009B00093691942FCD10D2313602DE72021424A8F
:1009C00093691942FCD10D2313601AE720213E4A96
:1009D00093691942FCD10D23136054E720213A4A50
:1009E00093691942FCD10D2313603FE72021364A59
:1009F00093691942FCD10D2313602AE72020324A63
:100A000093691842FCD10D23136015E720212E4A6B
:100A100093691942FCD10D23136085E620212A4AEF
:100A200093691942FCD10D23136071E62021264AF7
:100A300093691942FCD10D2313607EE62021224ADE
:100A400093691942FCD10D23136055E620211E4AFB
:100A500093691942FCD10D23136041E620211A4A03
:100A600093691942FCD10D2313602DE62021164A0B
:100A700093691942FCD10D23136019E62021124A13
:100A800093691942FCD10D23136005E620200E4A1C
:100A900093691842FCD10D231360F1E520210A4A25
:100AA00093691942FCD10D231360D9E52021064A30
:100AB00093691942FCD10D231360C3E5FA21890023
:100AC00001F074FC0790AAE40040034010B5029CBA
:100AD0000460039C01614460049C42618460059C45
:100AE0008361C46010BDC046836810B55A1C3B2B9F
:100AF00001D0826010BD00214268C3688160541C2F
:100B00003B2A01D04460F5E702684160013202608F
:100B10000C2A04D00D2AEDD101230360EAE7002B53
:100B2000E8D001330B3A13400160C360E2D143695E
:100B30001F2B02D001334361DCE7036942610D2BB7
:100B400002D001330361D5E7836902610133836118
:100B5000D0E7C04610B5029C0460039C016144606C
:100B6000049C42618460059C8361C46010BDC046E2
:100B70000B6930B5CB614B690B628B694B620B68BB
:100B80008B624B68CB628B680B63CB681C318B61CB
:100B9000030034C934C334C934C30A681A6030BD91
:100BA00084B030B5059202000693049104AC2ACCBF
:100BB0002AC22ACC2AC22ACC2AC20D9B436230BC4C
:100BC00008BC04B01847C046030030B534C934C36C
:100BD00034C934C334C934C330BDC046406A7047D9
:100BE00041627047002303607047C04684B0F0B58F
:100BF000046893B019AD060019916A60AB60002CCF
:100C000027D02000FFF7EAFF2600041EF9D109AF24
:100C10003A000BCD0BC20BCD0BC20BCD0BC2282063
:100C200001F0F8FE6A46050006940CAB13CB13C224
:100C300013CB13C2280009997A68BB68FFF7B0FF8D
:100C400029003000FFF7CCFF13B0F0BC08BC04B0A3
:100C5000184709AC22000BCD0BC20BCD0BC20BCD3C
:100C60000BC2282001F0D6FE6A46050033680693C1
:100C70000CAB83CB83C283CB83C228000999626803
:100C8000A368FFF78DFF3560DEE7C046002370B52F
:100C90000D0009680400036000290CD0FFF794FFE1
:100CA0002E683000FFF79AFF2860002E03D028211D
:100CB000300001F0B3FE200070BDC046094A830039
:100CC00094464022634410B51C68C0006240C024B2
:100CD00014408022520113431C60034B9C46604425
:100CE000416010BD04C00140004001400123D022FA
:100CF0008340120693629361094A8300944640221E
:100D000063441968C0004A40C0211140802252014A
:100D100013431960034B9C460523604443607047AE
:100D200004C0014000400140F8B5CE464746914618
:100D300080B5EFF3108772B6124E3368002BFCD0EB
:100D4000BFF35F8FCB08C55C0724C21828000123BE
:100D50000C409446E0401A000240904603420DD1F8
:100D6000A34062462B431370BFF35F8F434633604B
:100D700087F310880CBC90469946F8BD484600F0B1
:100D800021FFC0462C0100D00021044B044ABFF3D0
:100D90005F8F02C39342FAD17047C046000100D072
:100DA000800100D0044A1078431CDBB2172B00D915
:100DB000102313707047C04694010020024B18683E
:100DC0008007C00F7047C04600C00640F8B5040059
:100DD00006200D0001F084F8002845D02B4B2C494B
:100DE000E3185A4253418022D20394465B42134097
:100DF000284A63441360284A136018008A689043A5
:100E0000FBD1224B8021E3185A425341234A5B0015
:100E100049000620995201F063F82900C00001F052
:100E2000C5FAC30921D1402701222600802562622C
:100E3000A36200232C36AD0135432B60062001F060
:100E40004FF83900800001F0B1FA6023E26A5340A4
:100E50006E221A4080235B0133431A60104B2363D8
:100E600010232B600D3BA364F8BD0E4A934203D9B7
:100E700000230D4F0D4AD8E77F2210400130400873
:100E80009F011A003F180300CFE7C0460080FCBF57
:100E900000C0004000E0004000F00040A80C00202E
:100EA00001030000FEFF0000C0FF3F00FFFF000045
:100EB00083680B4810B584466144624409011201FD
:100EC0009A18591854684B6801209C4201D802D0E6
:100ED0000020C0B210BD12680B689A42F9D8F7E73B
:100EE000FFFFFF0F40BF002000217047F8B55746B5
:100EF0004E464546DE46E0B5434D81468A466A6821
:100F0000EFF3108872B61368002BFCD0BFF35F8F2D
:100F10002E68B47B002C3ED0670033683F19033F36
:100F2000DA195378B373002B00D1F3730023937055
:100F300053701370A968354A8C464946A2181201AD
:100F400062441160514651603149D360916032680A
:100F5000D219937053701370737B9B46002B35D05E
:100F600022001900B068736898473268002820D0C2
:100F70005B4658465B005B44D719033BB870D118F9
:100F8000D35C002B00D07B705B460C7073735C45A8
:100F90001DD0002626E06B68BFF35F8F1C6088F3CE
:100FA0001088012040423CBC90469946A246AB4680
:100FB000F8BD5B465B005B44033BD3189C70D119C2
:100FC000D25D002A00D05A705B460B7074734A469B
:100FD0005346287D00F0CAFA061EDAD021002868A0
:100FE00000F020FDEB686A681B19013B1B78BFF31A
:100FF0005F8F0021116088F310880020002ED2D16D
:1010000018022043CFE7C04698010020FFFFFF0FE2
:10101000E50E0010F8B5574645464E46DE46E0B5AB
:1010200099460CAB19780DAB1B78050090469A4693
:101030000768002912D1BE7B002E45D074003B68A2
:10104000A419033C1B195A783100BA73002A00D145
:10105000FA7300229A705A701A7003E00E004C0066
:101060006418033C2C4B00229C46AB6861449C46B0
:101070004346090161440B604B464B600A9B8B6001
:101080000B9BCB603B681B199A705A701A707B7B64
:101090009B46002B2CD032005946B8687B68984795
:1010A0003A68002817D05B4658465B005B44141929
:1010B000033BA070D118D35C002B00D063705B465B
:1010C0000E707B73B34514D030003CBC90469946FB
:1010D000A246AB46F8BD5B465B005B44033BD318BE
:1010E0009E701119125D002A00D05A705B460B7079
:1010F0007E7342464B46287D00F038FA041E06D027
:101100005346002B03D13100286800F08BFC0E9B66
:10111000002BD9D01C70D7E7FFFFFF0FF0B5DE46DC
:101120004E46574645460023E0B58DB00A936B4BBB
:101130008200D3580B90994600239B464B46079359
:1011400000F0B4F9079C06000F006268EFF3108509
:1011500072B61368002BFCD022000794BFF35F8F98
:101160002468637B9946002B67D092685C4B90465D
:101170004B441B01984443461A685B6810001900F1
:10118000801BB94100295FDD0B9800F0EFF90023C7
:101190000026984600279A46079C6368BFF35F8F36
:1011A0005A461A6085F310885346002B08D1002850
:1011B000C6D10DB03CBC90469946A246AB46F0BDA8
:1011C0000A9B414618024B461843D04708900991A4
:1011D0006268EFF3108572B61368002BFCD0079499
:1011E000BFF35F8F0899099A002A48DB114303D0A7
:1011F000079B1B69002B5DD1079B1B68DA7B002ACC
:1012000007D051008A1819688C4649466244033A4F
:1012100051704A46DA734B46079A013BD168CA5C63
:101220000132CA545B46079A13615368BFF35F8F5C
:101230005A461A6085F3108882E7002300269846F4
:1012400000279A460020A7E7002901D100289BD15A
:101250000021200000F048FB43461E685F689B6841
:10126000079A9A464346DB689846D3684B44013B4D
:101270001B780A931B020343136100208CE7236948
:10128000002BB9D033003C005B1A94411A002300B4
:10129000A74219D89F421BD05946049101210391BE
:1012A0004946029141460191514607980091FFF746
:1012B000B1FEB7E700F0FAF8089A099B06000F00A4
:1012C00092197B419942E5D901225242D317E3E7B3
:1012D0009642E1D901225242D317DDE7800C00206B
:1012E000FFFFFF0F10B5104C6368002B00D010BD3E
:1012F00023000E4A1021206800F014FA032000F0A9
:10130000C9F8032000F0A4F90320094900F0E8F827
:10131000FFF748FD074B9C46032360442375064BAB
:1013200080006060DC60E2E798010020B10E0010F0
:101330001D11001040000034800C0020F8B504009E
:1013400000F0B4F8FA2206000F002000002300216C
:10135000920001F0D9FA8019794104000D008F4202
:101360002DD82AD006267642F71736196F41AF429C
:101370002CD90026002700F099F832003B00121A01
:101380008B41002B07DC04D02900200000F098F8E6
:10139000F8BD002AF8D030003900FFF7A7FD00287B
:1013A000F2DB38000C4A536A984204D8916A8E42A4
:1013B000EAD99842E8D120BFF5E78642D2D9012484
:1013C0006442E51707267642F717D4E7AF42D2D139
:1013D000A642CED8CFE7C04600400540F0B5D6467D
:1013E0004F464646C0B5EFF305833F221340180031
:1013F0001038EFF3108C72B6204D2A68002AFCD00A
:10140000BFF35F8F0122110081401D4C884661634C
:101410001C4917000E788A463100C1400F400A422D
:1014200015D019498200646A51588C4219D3174B60
:10143000D25843469E4353461E70BFF35F8F00232E
:101440002B608CF31088002A06D0904704E0BFF38D
:101450005F8F2F608CF310881CBC90469946A24683
:10146000F0BD0B4A9B00904643441A681A60BFF3D4
:101470005F8F00232B608CF31088EDE7280100D0EC
:1014800000400540A60C0020900C0020F80B002026
:10149000D03F054010B50100024A0348FFF744FC65
:1014A00010BDC0466C360010A40C0020034B596AD6
:1014B0000A00986A596A8A42FAD17047004005408A
:1014C000064A536A9942FCD807D1044B02E05A6A93
:1014D000914202D19A6A8242F9D370470040054096
:1014E00070B504000D00EFF3108672B61A4A136847
:1014F000002BFCD0BFF35F8F002D1BD0200000F02D
:101500004DFD164981420AD0200000F04FFD012117
:10151000200000F031FD0123A340114A1360114B5C
:10152000A400E550BFF35F8F00220B4B1A6086F3D7
:10153000108870BD0B4BA200D5500122A2400A4971
:1015400020000B7893430B70044900F059FD0021F3
:10155000200000F011FDE5E7280100D0DD130010A8
:1015600038600540F80B0020A60C0020F0B54F466F
:10157000D6464646C0B50700304C616A0D00A66AE3
:10158000616AA942FAD18B4208D805D001201CBC5F
:1015900090469946A246F0BDB242F7D9EFF31089C2
:1015A00072B6274801680029FCD0BFF35F8F012580
:1015B0002449BD408C460978204C0E002E438846B5
:1015C000F1B28A46614650460870391D1E488900AE
:1015D00065630A51B9000B50216A0020294219D0D5
:1015E000616A0800A66A616A8142FAD18B4219D801
:1015F00001D1B24216D8C2451DD0104B1F201D622A
:101600005D6301230740BB40104A1E3813606346E8
:1016100042461A70BFF35F8F0022094B1A6089F3AC
:101620001088B4E70020BFF35F8F0022044B1A60DC
:1016300089F31088ABE70120ECE7C0460040054085
:10164000280100D0A60C0020900C002080E200E0D1
:1016500010B5EFF3108472B60A490B68002BFCD06A
:10166000BFF35F8F01238340074A08481362027863
:101670009A430270BFF35F8F00230B6084F31088DE
:1016800010BDC046280100D000400540A60C002037
:10169000024B9C4661448900016070474000003461
:1016A00010B50400FFF77EFB01002000FFF7F0FFFC
:1016B000FF232371BFF35F8F10BDC04670B50500D7
:1016C0000E001400002924D0002A24D080686B6802
:1016D0009847296800280ED063001B197200033B4D
:1016E0009219CB18033A9E7088188A5C002A14D18C
:1016F000047030000EE073009B196200033B121966
:10170000CB18033A9C7088188A5C002A00D05A7063
:101710000670200070BD0800FCE75A7004703000AD
:10172000F8E7C04630B583600023CCB24373013381
:10173000047342608373C4730D000068012C06D9E2
:10174000421C0133DBB2137003329C42F9D1FF21FA
:1017500029404B005918002340180338437030BD0E
:10176000F8B5CE46474606000C0080B5002907D0E4
:101770004D0003686D18033D5A195778002F04D1A6
:1017800020000CBC90469946F8BD7900C919033970
:1017900088464344597889460021597051707368CE
:1017A0003A002100806898473368002814D04246E8
:1017B0009A18947059195B5D002B00D053700F700C
:1017C000270049463000FFF7CBFF39000200300008
:1017D000FFF774FF0400D3E7424641465D19AF703E
:1017E0009A185B5C002B00D06B701470E9E7C04660
:1017F000F0B557464546DE464E46E0B50D006B0057
:1018000001685B19DF1E0400C85D83B00192CA192C
:1018100000284CD043001B18033BCB185E78B4461D
:10182000002E16D1019E002E3ED0E67B002E04D065
:1018300073009B19CB18033B5D70E57300282FD113
:101840000023537003B03CBC90469946A246AB4679
:10185000F0BD72006244033A89184A78904600222B
:101860004A7091465A70010032002000FFF726FFAF
:1018700043468246002B07D05B0021684344033B6C
:10188000CB185A78002A16D1424651462000FFF75D
:1018900015FF2168019BCA19002BC6D10028CFD0A3
:1018A00043001B18033BCB1800219970C8E7019B2C
:1018B000002BBAD1C4E750008018033809184878C3
:1018C000834648464870587041462000FFF7F6FEB0
:1018D000594680462000FFF743FF414602002000A2
:1018E000FFF7ECFE8046CFE7F0B54E464546DE46B4
:1018F0005746E0B5467B040075000068AD19033D0E
:1019000083B00191415D421900294ED04B005B1814
:10191000033BC3185F78BC46002F18D1019D002DF2
:1019200040D0E57B002D04D06B005B19C318033B4E
:101930005E70E673002931D100233000537061736B
:1019400003B03CBC90469946A246AB46F0BD7A0037
:101950006244033A801842789346002242709146CE
:101960005A7020003A00FFF7A9FE5B468046002B24
:1019700007D05B0021685B44033BCB185A78002AF0
:1019800017D15A4641462000FFF798FE019B0100FF
:1019900020684219002BC4D10029CDD04B005B1820
:1019A000033BC31800209870C6E7019B002BB8D1F9
:1019B000C2E7500080180338091848788246484624
:1019C0004870587059462000FFF778FE534683460A
:1019D000002B07D05B0021685344033BCB185A7897
:1019E000002A06D1594652462000FFF767FE83467B
:1019F000C7E7500080180338091848464F784870E8
:101A0000587051462000FFF759FE390081462000EA
:101A1000FFF7A6FE494602002000FFF74FFE824670
:101A2000E0E7C04670B5040000292CD0437B8B4210
:101A30002ED0056848004018033828188278002AFC
:101A400021D053009B18033BEA5CEE188A4202D176
:101A50001BE0002A08D053009B18033BEB185A7870
:101A60008A42F6D142785A70002301228370437073
:101A70002000FFF7BDFE617B02002000FFF71EFE85
:101A80006073012000E0002070BD43783370EBE705
:101A900001221900FFF7ACFE60730120F4E7C04695
:101AA0002B4B2C4A70B51A602B4A2C4B2C491A60D0
:101AB00010008B689843FBD12A4C2B4B9C4209D2D7
:101AC000013B1D1BAD080135AD002D1908CC984711
:101AD000AC42FBD100F094F8244A204B1A60204A13
:101AE0009368DB018033FBD14022214B214C9A6764
:101AF0005A671A67DA66204B9C420BD2013B1D1BCA
:101B0000ED080135ED002D1920000834FFF7C8FD60
:101B1000AC42F9D1194C1A4DA168C022280000F03E
:101B200073FFA560FFF730F900F0A2FBFFF7DAFBC7
:101B3000144C154B9C4209D2013B1D1BAD080135CD
:101B4000AD002D1908CC9847A542FBD170BDC04609
:101B500000E00040BFCDFFFFFE7F3C0000F00040F2
:101B600000C00040900A0020A00A0020FFFFFF01F3
:101B700000F00140880A0020900A002000ED00E0FB
:101B800000000020A00A0020A40A0020094A030047
:101B90001068002805D00849C3188B4207D8136085
:101BA000704706480449C31810608B42F7D90120DA
:101BB0004042F5E7780C002000000420B40E00201D
:101BC00000BEFDE70FB400B5084883B000F0FAFF8F
:101BD000049B002B07D005A91800019100F06CFBB5
:101BE000034800F0EFFF00BEFDE7C046903600104E
:101BF000A036001010B50148FFF7E4FFA43600102E
:101C000030B50C2083B000F071F9FFF7D7F8002849
:101C10000ED09A4B9A4A1A605A609A60DA601A613A
:101C20005A619A61DA611A62964A5A6203B030BD0B
:101C3000954CA06700F062F90122944B1A60636C26
:101C4000012BFCD10322924B1A608F4A936B012B1C
:101C5000FCD1C0228F4B92011A608F4B8F491A60C2
:101C600010008B689843031EFAD1022401218C4A8C
:101C70008C480633009400F055F905238A4A012167
:101C80008A48009400F04EF9894B5A68FF2A02D81E
:101C9000802252005A608022784C7D4B21691201CB
:101CA000834D1A60002905D0606900F07FFB013088
:101CB0000138FDD1E0217E4B02201A6811408022BC
:101CC00052012A4311601968484003210140116004
:101CD00004219A681142FCD08022802192012A437B
:101CE00009011160802252005A60724B2361724BCD
:101CF0005968FF2900D85A6003226F48634B0121BD
:101D00001A60020093681942FCD0E02513681D4058
:101D100080235B0103431D6012684A400321114088
:101D200019600221644A93681942FCD08023802103
:101D30009B010343090119608021604B49005160F8
:101D400063615F4B5A68FF2A00D8596080225D4B5F
:101D5000E16912015A4D1A60002905D0606900F04E
:101D600025FB01300138FDD1E02255490B681A40AE
:101D700080235B012B431A60802380229B012B432D
:101D800012011A6080223E4B52004A60E3614E4BC2
:101D90005968FF2900D85A6080224C4B216A1201F1
:101DA000494D1A60002905D0606900F0FFFA013042
:101DB0000138FDD1E02244490B681A4080235B01C1
:101DC0002B431A60802380229B012B4312011A604F
:101DD000802380225B004B60294BD20223623C4B64
:101DE0005968914200D25A6080223A4B616A1201CE
:101DF000374D1A60002905D0606900F0D7FA01302C
:101E00000138FDD1E02232490B681A4080235B0182
:101E10002B431A60802380229B012B4312011A60FE
:101E20008023DB024B60174B63622B4B5A68FF2AFF
:101E300002D8802252005A608022284BA1691201E8
:101E4000254D1A60002905D0606900F0AFFA013015
:101E50000138FDD1E02220490B681A4080235B0144
:101E60002B431A60802380229B012B4312011A60AE
:101E700080235B004B60114BA361D7E6080C002068
:101E8000006CDC021BB70000008000403CB000404A
:101E900030B0004000E0004000F0004000C00040D2
:101EA000002F68590080024000389C1C00C002408E
:101EB00030800040001BB7003C8000404059730751
:101EC0005480004054B000406080004060B000404A
:101ED0006C8000406CB000404880004048B000403A
:101EE000014B8000C0587047080C00208023024A34
:101EF0009B000343D362704700800540AA23064A33
:101F00001B0113602F230549D360054B19605368EB
:101F1000002BFCDA7047C0460040024000B0FA00D7
:101F200000600240F8B51E0001235B4243600023BD
:101F30000400836001600C20170000F037FA4101B3
:101F4000091A8D01691AC90009188901380000F0C1
:101F50002DFAC021231D890119432123A0600B60A4
:101F60002268002AFCDA069B36041B031E43082362
:101F7000E6600B60F8BDC04601238340002904D011
:101F8000034A1360034A13607047034A1360FBE778
:101F900080E200E000E100E080E100E0024B103070
:101FA0009B688000C058704700ED00E070B50D00E0
:101FB000EFF3108672B60F4A1368002BFCD0BFF304
:101FC0005F8F0D4B10309B6884001B590B4A934266
:101FD00003D09D4201D0FFF70DFE074B9B681D51BA
:101FE000BFF35F8FBFF35F8F0022024B1A6086F34F
:101FF000108870BD240100D000ED00E0CD0100107C
:10200000F0B5DE4657464E464546E0B50C0083B077
:10201000EFF3108A72B65B4A1368002BFCD0BFF353
:102020005F8F1022914681444A46574B96009B6829
:102030009D59564B98469D4205D0A54216D0544F07
:10204000EB1B2F2B14D9504B9B689D51BFF35F8F17
:10205000BFF35F8F00224B4B1A608AF3108803B0E6
:102060003CBC90469946A246AB46F0BD1D00EAE74F
:10207000012383409B465A46464B1B681A400092F8
:102080005A46454B1A60BFF35F8FFEF7ECF801909C
:10209000002803D0814501D0FFF7ACFD01232A00C1
:1020A0009A431300DB1B5B4142495943090D936876
:1020B0009C4208D15BE043001B189B00FB1898680A
:1020C000A04211D01A00062010560028F3DA009B17
:1020D000002B05D05A46314B1A602E4B1A60B2E7DE
:1020E0005A462D4B1A60AEE706201856002822DB10
:1020F0004200111889007C188846A1689960E1792E
:10210000D971062161569971A1797F291FD8A488B8
:10211000F91A6405241544440919E0240905490DF8
:1021200024022143998012181D4B9200BF181A787F
:102130001870BA71CBE7019800280BD1FF3090716D
:1021400018489080164A107811709871BFE7BD2129
:102150000902E7E7144A1549D21A083A5002400D1D
:1021600001439980124952080A43DA80AFE70620FA
:10217000105613000028BBDA019A002AEAD145461E
:10218000E0E7C046240100D000ED00E0CD010010E2
:10219000C001002000E100E080E100E080E200E01A
:1021A000A50C002000BDFFFFFA01002000F0FFFF9A
:1021B00000F8FFFFAAAA0000F8B5012504000543B6
:1021C000FEF751F80200EFF3108672B621490B6852
:1021D000002BFCD0BFF35F8F1F492000401A404105
:1021E000224B43431B0D1D48920087685BB2BF58CA
:1021F000AF421CD006228A569A421CD012228A561E
:102200009A4222D01E228A569A4220D02A228A56E8
:1022100003209A4210D0124A11781370A171BFF3B3
:102220005F8F00220B4B1A6086F31088F8BD81681F
:102230000C488850EFE700204200121892008918DD
:10224000FF228A71084A8A80E5E70120F4E702202C
:10225000F2E7C046240100D0C001002000ED00E0FC
:10226000A50C0020CD01001000BDFFFFAAAA0000B0
:10227000F0B500220324FF27802620003D00094BF3
:1022800011009C461040C0008540A14361440B688A
:102290000132AB43350085402B430B60202AECD143
:1022A000F0BDC04600E400E010B5002800D110BD2C
:1022B00000F07AFCFBE7C04610B5094A0300146839
:1022C00084B0002C08D0012200910648524203A994
:1022D000A047012004B010BD00F074FC0020F9E715
:1022E0007C0C0020A922001001480421014B184752
:1022F0001002002019230010142310B501001888C3
:1023000004331B88984710BD162310B501001888A8
:1023100002331B88984710BDF0B5C64600B50029AA
:1023200016D0142304000125984618278900461862
:102330004346216818883B88984701C4431E98414A
:1023400040420540A642F3D1280004BC9046F0BDAF
:102350000125F9E7144A936F9B0815D29066D16660
:10236000002905D0FFE7FFE7FFE7516F106F7047C7
:1023700004B580210906C2175140002800D0C84387
:1023800001F03AF9002104BD936F5B08FDD3F0B56D
:10239000946ED56E576F166FFFF7E0FF9466D566A3
:1023A00057671667F0BD0000000000D0134A936F16
:1023B0009B0813D210665166002905D0FFE7FFE79E
:1023C000FFE7516F106F704704B5002801D000205F
:1023D000C04301F011F9002104BDC046936F5B08B2
:1023E000FDD3F0B5946ED56E576F166FFFF7E2FF11
:1023F0009466D56657671667F0BD0000000000D0F0
:1024000094464E4A926F9208624601D230E0C0462E
:10241000F0B54A4EB56F6D08FCD3346E756E776FAC
:10242000366F00F025F89446444A1466556657679F
:1024300016676246F0BDC0469446404A926F9208C5
:10244000624601D258E0C046F0B53C4EB56F6D080B
:10245000FCD3346E756E776F366F00F04DF894468E
:10246000364A14665566576716676246F0BDC04621
:10247000002B24DB11D000293EDA00B5C9434042CD
:1024800000D1013100F038F8C943404200D1013198
:10249000DB43524200D1013300BD002AEBD10028BA
:1024A00001D1002905D00020C90FC90701D1C043BF
:1024B000410800B501F098F80022002300BD00B5E6
:1024C00000290ADBDB43524200D1013300F014F84B
:1024D000C943404200D1013100BDC943404200D14F
:1024E0000131DB43524200D1013300F005F8DB43F8
:1024F000524200D1013300BD002923D1002B18D155
:10250000002A0CD0BC460D4F38667A6600210023A5
:10251000FFE7FFE7FFE77A6F386F674670470028ED
:1025200001D00748010000B501F05EF80022002349
:1025300000BD02000B00002000217047000000D009
:10254000FFFFFFFF002B00D0BDE0130C26D1002AB7
:10255000E7D080B4104F39667A66FFE7FFE730B402
:10256000040C7B6F396F1B0423433B66FFE7FFE7D7
:10257000FFE7C04684B27B6F3D6F1B0423433B667D
:10258000FFE7FFE7C04600232C042D0C7A6F386F5D
:1025900000196941B0BC7047000000D0F0B5944606
:1025A0000025140E01D112020835140F01D11201B9
:1025B0000435940F01D192000235D40F01D152009D
:1025C0000135D40B0134254F7C66254C3C660E0C3E
:1025D00093B2FFE7FFE7FFE73C6F6643360C7703F4
:1025E000BE467343DF0B5B04C01AB941130C73433F
:1025F000DB18C91ACE086643360CB64493B273434F
:102600001F0F1B01C01AB941130C73431F0B1B058D
:10261000C01AB941860D8F023E436643360C092D20
:1026200024DB520A7243801A7703460A6643360C4B
:1026300016235B1BDE40DF40BF1964466643821BE6
:102640007046043506330100D940A840C01900D3B4
:102650000131A24206D20023F0BD0000000000D0EC
:10266000FFFFFFFF121B0130F3D3F1E709277F1BA8
:10267000FE406446A2B27243801A00D20139220C95
:102680007243130C1204821A99410B0070460435F0
:1026900013370100F940A840801900D30131002B05
:1026A00002D1A2420AD2F0BD013000D30131121B87
:1026B000FAD2013BF8D1A24200D2F0BD013000D3E2
:1026C0000131121BF7E7F0B51C0C00D080E00CB410
:1026D00000251C0A04D11B02160E334312020835D2
:1026E0001C0B04D11B01160F3343120104359C0B44
:1026F00004D19B00960F334392000235DC0B02D1CC
:1027000092185B4101351C00971864410134464F13
:102710007C66464C3C660E0CFFE7FFE7FFE7C046D1
:102720003C6F6643360C7703BE4697B27743C01BB7
:1027300000D20139C01B00D201399FB27743C91BB7
:10274000C91B170C77437E04FF0B801BB941CE08D1
:102750006643360C0C2D33DBB644120B1F053A438F
:102760001B0B97B27743C01B00D201399FB277434E
:10277000C91B170C77433E043F0C801BB941860DE3
:102780008F023E43664329277F1BFE400C3D774660
:10279000AF40BF1930BCA2B2ABB272437343801AD0
:1027A0009941220C7243130C1204801A99410200C1
:1027B0000B000137001BA941F9D2781E0021F0BDA2
:1027C0000C277F1BFE4077467F0BAF40FF19E0E7E9
:1027D00000245D1C07D0144F7D663966FFE7FFE7D4
:1027E000FFE7FFE73C6F95B29EB265436643401B2F
:1027F000B141150C1E0C6543664336042F0C3E4355
:102800002D04401BB141994204D202000B0020006C
:102810000021F0BD01D19042F7D3801A99410134D3
:102820009942F2D3F6E70000000000D0FFFFFFFF5F
:10283000132370B51D78012D10D00BDD2448FFF750
:1028400063FD244C01008022200000F0DDF8022D01
:1028500001D070BD1F4C204AA264FAE72E001D4C27
:102860001D4AA3085B421E401D422FD03300226048
:102870002020B1006118801B0A604A608A60CA602B
:102880000A614A618A61CA610A624A628A62CA62EC
:102890000A634A638A63CA630A644A648A64CA64CC
:1028A0000A654A658A65CA650A664A668A66CA66AC
:1028B0000A674A674008102803D18A67CA67A2647A
:1028C000C7E71E339B00E250A264C2E70023CFE7B4
:1028D00053440000AC0C0020DD28001007B5604612
:1028E00001880A0A0230DF2AFAD1C9B2820804D369
:1028F000028840880004104300E00068014A5050FC
:10290000039007BDAC0C002051434343C9188C46CB
:10291000110C83B24B4310B4040C614392B280B2E9
:10292000504362431C041B0C001910BC5941130492
:10293000120CC0185141614470470000132310B5B8
:1029400012481C78FFF7E0FC0100012C0AD003DDDF
:1029500080220F4800F058F80E48FFF7CDFC0E4BD0
:10296000186010BD0A4C5422200000F04DF80B4BAB
:102970006365A365E36523666366A366E366236711
:102980006367A367E3672362E361E5E753460000FB
:10299000AC0D00204C330000AC0E0020A12900102B
:1029A00007B5604601880A0A0230DF2AFAD1C9B2A7
:1029B000820804D3028840880004104300E00068C5
:1029C000014A5050039007BDAC0D002010B5040023
:1029D00000F09EF9002804D0034B04199C4200D853
:1029E00010BD0248FFF7EEF800000420B0360010DA
:1029F00010B500F097F910BD01480421014B1847AC
:102A00002002002019230010014B5B6818470000CA
:102A10002002002010B5FFF7D9FF10BD10B5FFF759
:102A2000E7FF10BDF8B54746CE460D0080B516004D
:102A30000700002A20DD4B1E98461A4B0024002078
:102A40009946002C2BD043461B5D0D3B5A42534107
:102A5000DBB22A5D0A2A13D00134A642F1DC864299
:102A600003DD311A3B6828189847AD19013D2B78D2
:102A70000D3B5A4253413B740CBC90469946F8BDFD
:102A8000002BE9D1A04203DA211A3B6828189847A5
:102A9000484602213B68013498472000DDE73B7C33
:102AA000D7E7C04634370010F0B557464546DE46F6
:102AB0004E46D023E0B51B061C68374B83B0070099
:102AC0000D00180001A990469A4600F09DFD814630
:102AD000002807D1019B9C4204D0504600F09CFD89
:102AE000012399466B1C03D1380000F001FC05005E
:102AF0002A4B1C68002C2FD00A23294E9B4602E04B
:102B0000E468002C28D02268002AF9D03368002B12
:102B100001D0A342F4D1637C002B2AD02A003900D3
:102B20002000FFF77FFF4346002BE9D06B465A4653
:102B30001A71637C002B20D0237C002B26D001212E
:102B4000236801A898476B461B790D3B5A425341B5
:102B50002374E468002CD6D14B46002B12D1681E9A
:102B60008541E8B203B03CBC90469946A246AB46CC
:102B7000F0BD290038009047D5E70121236801A85E
:102B80009847BDE7504600F027FDE8E702210548D9
:102B900023689847D7E7C046880A0020700C0020B9
:102BA000740C00203437001010B582B06B4604005E
:102BB0000022D81D01210470FFF776FF200002B02B
:102BC00010BDC04670B5040000F092FB0122010068
:102BD00005002000FFF768FF084B1C68002C06D09A
:102BE0006368002B05D09847E468002CF8D12800D2
:102BF00070BDE468002CF3D1F9E7C046700C0020EA
:102C00000D4A1368002B13D0834202D109E0984289
:102C100008D01A00DB68002BF9D1002900D0D06061
:102C200070471A000029FBD1DB68D360C160F7E769
:102C30000029F5D01060F3E7700C002010B500F00B
:102C400043F810BDF0B50D1E15DD0E4B0D271A68AB
:102C50000D4B4519D31859424B410C495B005E5E40
:102C600020210478A64207D093691942FCD1013093
:102C70001460A842F5D1F0BD93691942FCD11760E8
:102C8000F2E7C046A00C00200080FCBFA80C00208A
:102C900030B50500002912DD00201024094B013D4C
:102CA0001A6893691C4208D1013093691C42FCD117
:102CB00013682B548142F4D130BD0028FCD103208D
:102CC0004042F9E7A00C0020E12110B50B4B0C4865
:102CD0001B780C4B49021B780B4B1860FEF776F8FB
:102CE00002210020FDF7EAFF02210120FDF7E6FFA7
:102CF00001210648FFF784FF10BDC0469837001039
:102D0000004003409C370010A00C0020300200203F
:102D100010B5034B0100186800F00EF810BDC04656
:102D20004802002010B5034B0100186800F064FB56
:102D300010BDC04648020020F0B557464546DE4665
:102D40004E46E0B50D000B3583B00700162D22D896
:102D5000102900D9BBE000F0B5FA10251823022095
:102D6000D14EF3181A005C68083A944200D1BEE0D4
:102D7000032362689A431300E268A168CA60916005
:102D80000122E318596838000A435A6000F09CFA9F
:102D9000200008309EE007239D4300D597E0A9421C
:102DA00000D994E000F08EFAF823FF339D4200D85A
:102DB000ADE1680A00D194E0042800D980E138230D
:102DC0009846A80980443930C100B74E71180839B7
:102DD000CC68A14218D0032362689A431300521BA7
:102DE0000F2A00DD36E1002AC6DA03239C4608E0FC
:102DF0006246636893435A1B0F2A00DD2AE1002ACA
:102E0000BADAE468A142F3D132003469083294425C
:102E100000D177E003236168994389460B00491B81
:102E20000F2900DD77E1726132610029A8DA9F4A3B
:102E3000914500D910E1DA08012391108B40D200AE
:102E4000716892190B4391687360E260A1609460AD
:102E5000CC60012182109140994259D80B4205D192
:102E600003229043490004300B42FBD003239846D1
:102E7000C3009946B144CC4682466346DC68A4450B
:102E800007D129E1002A00DB32E1E468A44500D142
:102E900022E14246636893435A1B0F2AF2DD012068
:102EA0008046611905436560A068E5680836C5601D
:102EB000A8604046F160B16010434860CE608E600B
:102EC0003800E25000F000FA2000083002E00C2345
:102ED00000203B6003B03CBC90469946A246AB46FE
:102EE000F0BD80213F238900402098466DE7DC68D3
:102EF0000230A34200D03BE73200346908329442EA
:102F000000D087E701217368821091409942A5D9CA
:102F10000323B46862689A439046AA4203D3531BC2
:102F20000F2B00DD88E023004344614A0193614B8D
:102F300093469A4612681B68EB18013200D139E1BA
:102F40005D4A944663441B0B1B03009300993800B1
:102F500000F0BCF903008146013300D1F6E0019B8B
:102F6000834200D9F0E051464968009B8C465146A7
:102F700063444B6001991A00494500D14FE15B461B
:102F80001B68013300D154E14B4601995B1A9A1832
:102F900053465A6007234A461A40019200D113E172
:102FA00008214B4689469B1A99440099434B494452
:102FB0009B1A5B1A1B051B0D0091380019009B46DC
:102FC00000F084F9431C00D14FE14B46C01A0300C6
:102FD0005B440093534652465B6801215B44536057
:102FE0004A464846B260009A0A434260B44200D161
:102FF00023E142460F2A00D821E107200C3A824300
:1030000060680140052011436160A1184860886034
:103010000F2A00D934E14A464C4652685146C96AE3
:10302000994201D25146CB625146096B994200D375
:103030008EE051460B638BE00122290013431143BC
:10304000651961603800B5606B6000F03DF92000E3
:1030500008303FE74046D7E65A0A042A6ED9142AB8
:1030600000D9C1E011005C325B31D20008235B4221
:103070009C46B218944463469A6803239846944544
:1030800000D19AE0434651689943494502D9926874
:103090009445F7D1D3689C4673686146A260E160AD
:1030A0008C60D460D5E6C04680060020FF01000099
:1030B00078060020C40B00200F100000081000004C
:1030C000142852D9542800D996E06E239846280B2C
:1030D00080446F30C10078E608239B46073BDC4400
:1030E0009B46DA4443465246134200D0C5E64CE0C4
:1030F0000122E318596838000A435A60E368A2685D
:10310000D3609A6000F0E0F820000830E2E62B007F
:10311000E808083324E6012360191D4365607061E7
:103120003061C26082601A004B460A434260380038
:10313000E15000F0C9F820000830CBE69A091100F0
:1031400039323831D20091E7B44260D0B468626855
:1031500003239A43531BAA4202D30F2B00DD6BE7D4
:10316000380000F0B1F80020B4E65B2398468044B4
:103170005C30C10029E608235B429C46E1444B4693
:103180009B6801384B4500D097E043460342F2D19B
:1031900073688B4373604900994200D9B8E60029EF
:1031A00004D1B5E6042294464900E2440B42F9D02A
:1031B00050465DE610330093C8E68910023B8B4011
:1031C00071680B43736068E7009B38004B441B0534
:1031D0005B421B0D19009B4600F078F8431C00D0A1
:1031E000F3E600239B46F5E6542A2AD81A0B110071
:1031F0006F326E31D20039E7AA235B0098422AD899
:10320000DD3B9846E80B80447830C100DDE553464D
:103210005B68009A9C46534662445A60AFE60905D3
:1032200000D0ACE6009AB468424401310A436260BF
:10323000F4E65B464A461A60ACE64C46EEE6416070
:103240008EE7AA2149008A4224D8DA0B110078328D
:103250007731D2000AE71A4B984224D87C2398464B
:10326000A80C80447D30C100AFE5009A019B9446D4
:103270004A46083B63449B1A009300239B46A9E6F9
:1032800021003800083100F0B7F85346B4685B6895
:103290006268C3E60A498A420BD89A0C11007D3253
:1032A0007C31D200E2E6FE217E2389007F20984611
:1032B0008BE5FE227E219200D8E673686BE7C0465C
:1032C000540500007047C0467047C046002370B5E3
:1032D000064C050008002360FEF758FC431C00D094
:1032E00070BD2368002BFBD02B60F9E7B00E0020E7
:1032F00010B5830727D00378002B26D003000321C5
:1033000002E01A78002A1CD001330B42F9D1196867
:103310000F4A104C8A188A4322420FD1043319688D
:103320000B4A8A188A43224208D104331968084A92
:103330008A188A432242F1D000E001331A78002A29
:10334000FBD1181A10BD0300E1E70020FAE7C046E0
:10335000FFFEFEFE80808080F8B50C000600FFF7BF
:10336000B1FF204FBB685D6803239D431E4B2C1BA0
:103370009C466444240B1D4B013C24039C4207DD06
:1033800000213000FFF7A2FFBB685B19984204D010
:103390003000FFF799FF0020F8BD61423000FFF7D1
:1033A00095FF431C0DD00122BB682D1B15435D60AA
:1033B0000F4B30001A68141B1C60FFF785FF0120BB
:1033C000EAE700213000FFF781FFBA68831A0F2B6C
:1033D000DEDD08490968401A0549086001210B43F0
:1033E0005360D5E780060020EF0F0000FF0F0000BC
:1033F000C80B002078060020F0B5D6464F4646465A
:103400000500C0B50C1E5CD0FFF75CFF2100083939
:103410004F6801243B000322A343C8184668964323
:10342000B146664EB268824200D175E04A464260BB
:10343000821894463C4229D10F68C91B8A68DB195F
:10344000904662465768082294462740B444BA46DC
:10345000E04556D0CA68944642466746D760624601
:10346000474697605246002A13D101224B44CF1899
:10347000BC468468524F1A43BC4200D17AE0C0680F
:10348000E06084604A606246136005E05768274246
:10349000EBD01C434C6003604A4A934216D8DB08C9
:1034A000FF3A9810FF3A82407068DB000243726076
:1034B0009E19B368CE608B60B160D9602800FFF7B9
:1034C00003FF1CBC90469946A246F0BD5C0A042C42
:1034D0003AD89C09200039343830E4003419083CCB
:1034E000A268032794423ED05068B843984202D95C
:1034F00092689442F8D1D468CC608A60A160D160AF
:10350000DCE7002F55D1C2684B4480681C43C26081
:1035100090604C60CB50D1E74B443C4206D10A68E6
:10352000891A88689B18CA68C260906001221A4391
:103530004A60254AB16012689A42BFD8234B2800DE
:103540001968FFF709FFB9E7142C07D9542C19D8CB
:103550001C0B20006F346E30E400BFE720005C34A9
:103560005B30E400BAE701238010834070680343B6
:103570007360C1E7E160A1604A606246CC608C6024
:1035800013609BE7AA204000844205D8DC0B200092
:1035900078347730E400A1E70D48844205D89C0CCC
:1035A00020007D347C30E40098E7FE247E20A400D7
:1035B00094E71C434C60036080E7C046800600200F
:1035C00088060020FF0100007C060020C40B0020BC
:1035D00054050000F8B5C04601B40248844601BC59
:1035E000604700BF5501002001B40248844601BC79
:1035F000604700BF7D01002001B40248844601BC41
:10360000604700BF7D01002001B40248844601BC30
:10361000604700BF0D01002001B40248844601BC90
:08362000604700BFC10000205B
:10362800C4070010860700102A0400102A0400109E
:103638002A0400102A0400102A0400102A0400108A
:103648002A0400104A0700102A0400102A04001057
:103658002A0400102A0400102A040010080600108A
:10366800CC040010486172647761726520616C61F6
:10367800726D20256420616C726561647920636CC9
:1036880061696D65640000000A2A2A2A2050414EAB
:103698004943202A2A2A0A000A0000004861726465
:1036A80020617373657274004F7574206F66206DA6
:1036B800656D6F727900000052656C656173650015
:1036C800626F6F74325F77323871303830000000C3
:1036D800302E3100312E312E310000007069636FB9
:1036E8000000000050726F6A4172436F6E64000000
:1036F800417072203232203230323100060052508E
:10370800BBFF3CB6E4360010060052503ABCA91183
:10371800D836001006005250E182887FC836001063
:1037280006005250D3F07542C03600100D0A000052
:103738005541525420737464696E000055415254C7
:10374800207374646F757400554152542073746407
:10375800696E202F207374646F75740006005250D0
:1037680053B4F4A1503700100800525092000000E2
:10377800B4020010A80200109C02001004370010C8
:1037880090020010103700101C3700102837001066
:083798006437001070370010C7
:1037A00010B502680024EFF3108172B61368002B85
:1037B000FCD0BFF35F8F03797F2B0BD80368BFF377
:1037C0005F8F1C6081F3108820BF0268EFF31081C7
:1037D00072B6EBE7D0231B061B6803710368BFF3C7
:1037E0005F8F00221A6081F3108810BD030010B5AE
:1037F0000068EFF3108472B60268002AFCD0BFF3B1
:103800005F8F04229A56002A0BDB00290FD000207C
:103810000A601B68BFF35F8F00221A6084F3108870
:1038200010BDD0221206126801201A71F1E70020A3
:10383000EFE7C0460268EFF3108172B61368002B01
:10384000FCD0BFF35F8FFF23037140BF0368BFF35A
:103850005F8F00221A6081F3108870477047C0465E
:10386000040000000F00000005000000020000003E
:103870000300000010000000B00100200000000064
:10388000A80A0020300C002000000000000000000A
:10389000400C0020000000000000000010000000AC
:1038A0000000000000000100000000000000000017
:1038B0000000020000000000000000000000030003
:1038C00000000000000000000000FF0000000000F9
:1038D00000B5486801318E460047704609380149F5
:1038E000884700BDB9210010000000000000000062
:1038F000503300004C3300005433000052330000BA
:103900004D5300004D430000533400004334000089
:10391000452C001000000000912C00100000000059
:103920000001000000000000500200200000000024
:10393000000000003C050020A40500200C0600202B
:103940000000000000000000000000000000000077
:103950000000000000000000000000000000000067
:103960000000000000000000000000000000000057
:103970000000000000000000000000000000000047
:103980000000000000000000000000000000000037
:103990000000000000000000000000000000000027
:1039A0000000000000000000000000000000000017
:1039B0000000000000000000000000000000000007
:1039C00000000000000000000000000000000000F7
:1039D00000000000000000000100000000000000E6
:1039E0000E33CDAB34126DE6ECDE05000B000000AB
:1039F00000000000000000000000000000000000C7
:103A000000000000000000000000000000000000B6
:103A100000000000000000000000000000000000A6
:103A20000000000000000000000000000000000096
:103D50000000000000000000FFFFFFFF0000020065
:103D60000000000000000000800600208006002007
:103D7000880600208806002090060020900600207B
:103D80009806002098060020A0060020A00600202B
:103D9000A8060020A8060020B0060020B0060020DB
:103DA000B8060020B8060020C0060020C00600208B
:103DB000C8060020C8060020D0060020D00600203B
:103DC000D8060020D8060020E0060020E0060020EB
:103DD000E8060020E8060020F0060020F00600209B
:103DE000F8060020F8060020000700200007002049
:103DF00008070020080700201007002010070020F7
:103E000018070020180700202007002020070020A6
:103E10002807002028070020300700203007002056
:103E20003807002038070020400700204007002006
:103E300048070020480700205007002050070020B6
:103E40005807002058070020600700206007002066
:103E50006807002068070020700700207007002016
:103E600078070020780700208007002080070020C6
:103E70008807002088070020900700209007002076
:103E80009807002098070020A0070020A007002026
:103E9000A8070020A8070020B0070020B0070020D6
:103EA000B8070020B8070020C0070020C007002086
:103EB000C8070020C8070020D0070020D007002036
:103EC000D8070020D8070020E0070020E0070020E6
:103ED000E8070020E8070020F0070020F007002096
:103EE000F8070020F8070020000800200008002044
:103EF00008080020080800201008002010080020F2
:103F000018080020180800202008002020080020A1
:103F10002808002028080020300800203008002051
:103F20003808002038080020400800204008002001
:103F300048080020480800205008002050080020B1
:103F40005808002058080020600800206008002061
:103F50006808002068080020700800207008002011
:103F600078080020780800208008002080080020C1
:103F70008808002088080020900800209008002071
:103F80009808002098080020A0080020A008002021
:103F9000A8080020A8080020B0080020B0080020D1
:103FA000B8080020B8080020C0080020C008002081
:103FB000C8080020C8080020D0080020D008002031
:103FC000D8080020D8080020E0080020E0080020E1
:103FD000E8080020E8080020F0080020F008002091
:103FE000F8080020F808002000090020000900203F
:103FF00008090020080900201009002010090020ED
:10400000180900201809002020090020200900209C
:10401000280900202809002030090020300900204C
:1040200038090020380900204009002040090020FC
:1040300048090020480900205009002050090020AC
:10404000580900205809002060090020600900205C
:10405000680900206809002070090020700900200C
:1040600078090020780900208009002080090020BC
:10407000880900208809002090090020900900206C
:104080009809002098090020A0090020A00900201C
:10409000A8090020A8090020B0090020B0090020CC
:1040A000B8090020B8090020C0090020C00900207C
:1040B000C8090020C8090020D0090020D00900202C
:1040C000D8090020D8090020E0090020E0090020DC
:1040D000E8090020E8090020F0090020F00900208C
:1040E000F8090020F8090020000A0020000A00203A
:1040F000080A0020080A0020100A0020100A0020E8
:10410000180A0020180A0020200A0020200A002097
:10411000280A0020280A0020300A0020300A002047
:10412000380A0020380A0020400A0020400A0020F7
:10413000480A0020480A0020500A0020500A0020A7
:10414000580A0020580A0020600A0020600A002057
:10415000680A0020680A0020700A0020700A002007
:10416000780A0020780A002000000000000000000B
:10417000F9290010E9220010312800103D29001013
:0441800039030010EF
:04000005100001E9FD
:00000001FF
